:020000040800F2
:10000000F8A0002045010008A7130008A712000867
:10001000A5130008DD01000805230008000000000A
:100020000000000000000000000000007120000837
:10003000F901000800000000B91F00087320000843
:100040005F0100085F0100085F0100085F01000810
:100050005F0100085F0100085F0100085F01000800
:100060005F0100085F0100085F0100085F010008F0
:100070005F0100085F0100085F0100085F010008E0
:100080005F0100085F0100085F0100085F010008D0
:100090005F0100085F0100085F0100085F010008C0
:1000A0005F0100085F0100085F0100085F010008B0
:1000B0005F0100085F0100085F0100085F010008A0
:1000C0005F0100085F0100085F0100085F01000890
:1000D0005F0100085F0100085F0100085F01000880
:1000E0005F0100085F0100085F0100085F01000870
:1000F0005F0100085F0100085F0100085F01000860
:100100005F0100085F0100085F0100085F0100084F
:100110005F0100085F0100085F0100085F0100083F
:100120005F0100085F0100085F0100085F0100082F
:10013000DFF80CD000F040F800480047192500080F
:10014000F8A000200648804706480047FEE7FEE783
:10015000FEE7FEE7FEE7FEE7FEE7FEE7FEE7FEE777
:10016000E920000831010008D2B201E000F8012BBB
:10017000491EFBD270470022F6E710B513460A4627
:1001800004461946FFF7F0FF204610BD30B50B4678
:10019000014600202022012409E021FA02F59D42B7
:1001A00005D303FA02F5491B04FA02F52844151E8B
:1001B000A2F10102F1DC30BD064C074D06E0E0681B
:1001C00040F0010394E8070098471034AC42F6D39E
:1001D000FFF7B2FFC8670008E8670008FEE7000005
:1001E00001B54FF47A7301226946024800F0C8FE57
:1001F00008BD00005C00002070472DE9F0410D258E
:10020000D426102000F006F900270024002000F07A
:100210001BF9641CA4B2AC42F8D37F1CBFB2B74236
:10022000F3D3132000F0F6F800270024FF2000F09D
:100230000BF9641CA4B2AC42F8D37F1CBFB2B74226
:10024000F3D300F01BF9BDE8F04100F0A9B90000BC
:100250002DE9F04781460D264FF0D408102000F01C
:10026000D9F800250024002000F0EEF8641CA4B2A8
:10027000B442F8D36D1CADB24545F3D3132000F062
:10028000C9F80024002504FB06F700BF09EB0500B0
:10029000385C00F0D9F86D1CADB2B542F6D3641CE1
:1002A000A4B24445EED300F0E9F8BDE8F04700F011
:1002B00077B92DE9F041064600F026F9912000F0CB
:1002C000A9F8902000F0A6F8002000F0BDF8672003
:1002D00000F0BAF8002000F0B7F8002000F0B4F801
:1002E000002000F0B1F8D32000F0AEF8282000F094
:1002F000ABF80D25102000F08DF80024002704FB3A
:1003000005F8F11918F80100C043C0B200F09CF8DC
:100310007F1CBFB2AF42F4D3641CA4B2D42CEDD383
:10032000132000F077F80024002704FB05F0F119F2
:10033000405C00F089F87F1CBFB2AF42F5D3641C6B
:10034000A4B2D42CF0D3BDE8F04100F029B90000EC
:1003500010B52F4C01220221204600F06EFAC82071
:1003600000F060F900220221204600F066FAC82061
:1003700000F058F901220221204600F05EFAC82060
:1003800000F050F9012000F045F8032000F05CF87F
:10039000002000F059F82B2000F056F82B2000F038
:1003A00053F8032000F050F8062000F033F817202F
:1003B00000F04AF8172000F047F8172000F044F842
:1003C000042000F027F800F0F7F8002000F022F8F1
:1003D000BF2000F039F80E2000F036F8302000F091
:1003E00019F83A2000F030F8612000F013F8682086
:1003F00000F02AF8002000F027F8D42000F024F8BC
:10040000822000F007F8282000F01EF8002010BD20
:100410000008014070B50B4C05460022042120461F
:1004200000F00BFA00221021204600F006FA2846C0
:10043000FFF7D6FE2046BDE870400122102100F0F3
:10044000FCB900000008014070B50B4C05460122C4
:100450000421204600F0F1F900221021204600F08E
:10046000ECF92846FFF7BCFE2046BDE870400122AB
:10047000102100F0E2B900000008014070B55020E2
:10048000FFF7C8FFB720FFF7DFFF2020FFF7C2FF0D
:100490001C4D0024285DFFF7D7FF641C2C2CF9D3DA
:1004A0002120FFF7B7FF174D00242C35285DFFF7FB
:1004B000CBFF641C2A2CF9D32220FFF7ABFF114D90
:1004C00000245635285DFFF7BFFF641C2A2CF9D3A2
:1004D0002320FFF79FFF0B4D00248035285DFFF799
:1004E000B3FF641C2A2CF9D32420FFF793FF054D9A
:1004F0000024AA35285DFFF7A7FF641C2A2CF9D336
:1005000070BD00007033000870B58220FFF782FFD5
:100510000020FFF799FF5020FFF77CFFB720FFF77F
:1005200093FF2020FFF776FF1C4D0024285DFFF786
:100530008BFF641C2C2CF9D32120FFF76BFF174D88
:1005400000242C35285DFFF77FFF641C2A2CF9D38B
:100550002220FFF75FFF114D00245635285DFFF77D
:1005600073FF641C2A2CF9D32320FFF753FF0B4D94
:1005700000248035285DFFF767FF641C2A2CF9D31F
:100580002420FFF747FF054D0024AA35285DFFF71B
:100590005BFF641C2A2CF9D370BD000044340008B2
:1005A00010B51220FFF736FF0A2000F03BF8BDE837
:1005B000104000F001B8000010B50BA001F0A4FE3F
:1005C0000F4C7120FFF726FF0821204600F030F97C
:1005D00040F30000401CF4D1C82000F023F8BDE82F
:1005E000104008A001F090BE44656275673A20652E
:1005F0002D506170657220627573790D0A000000DC
:100600000008014044656275673A20652D506170AD
:10061000657220627573792072656C656173650D12
:100620000A00000070B5044600F00CF90546601C95
:1006300002D004480078044400F004F9401BA042B2
:10064000FAD370BD280000202DE9F84FDFF8B8A1DB
:1006500000220AF1040B144601274FF00F090BF199
:10066000040E00BF0B6807FA04F52B40AB4274D1AF
:10067000DFF898C14E68A6EB0C0866452BD00DDC60
:10068000032E34D005DC36B3012E19D0022E2FD123
:100690001BE0112E16D0122E2AD119E0B8F5881FB2
:1006A00019D006DCB8F5803F15D0B8F5801F1FD1F2
:1006B00011E0B8F5001F0ED0B8F5041F18D10AE0FC
:1006C000CA6815E0CA68121D12E0CA6808320FE055
:1006D000CA680C320CE08A682AB1012A4FF008027D
:1006E00003D0456104E0042202E0056100E000223D
:1006F000FF2B01D8064601E000F104064FEA84050D
:1007000001D9A5F12005D6F800C009FA05F82CEAB0
:10071000080C02FA05F54CEA050CC6F800C04D6855
:10072000ED006AD53A4DAE6946F00106AE61AD699D
:1007300024F0030605F001050095364D06EB050C87
:10074000DCF80850A6074FEA167809FA08F6B54310
:10075000314EB04202D100261AE04EE02F4EB04298
:1007600001D1012614E02E4EB04201D102260FE045
:100770002C4EB04201D103260AE02B4EB04201D1EB
:10078000042605E0294EB04201D1052600E00626E8
:1007900006FA08F62E43CCF808604D68DAF80060D7
:1007A000ED03554601D51E4300E09E432E604D6883
:1007B000AD0305D5DBF800601E43CBF8006004E014
:1007C000DBF800509D43CBF800504D68DEF8006028
:1007D000ED02754601D51E4300E09E432E604D6834
:1007E000AD0205D5084D0C352E681E432E6004E081
:1007F000054E0C3635689D433560641C102CFFF4A3
:1008000031AFBDE8F88F0000000401400000111076
:10081000001002400000014000080140000C0140AF
:10082000001001400014014000180140001C01406C
:100830008068084000D0012070470AB1016170470C
:100840000904FBE701488068704700002800002089
:1008500002488168027811448160704728000020B6
:10086000074810B5016841F010010160032000F055
:1008700089F8002000F006F800F024F8002010BDF0
:100880000020024070B50D4D04464FF47A7128786F
:10089000B1FBF0F00A490968B1FBF0F000F031FC5F
:1008A00048B9102C07D200222146501E00F04AF809
:1008B00000206C6070BD012070BD00002800002089
:1008C000340000201D4808B5816941F001018161B3
:1008D000806900F001000090032000F053F800222E
:1008E00011466FF00B0000F02DF8002211466FF05A
:1008F0000A0000F027F8002211466FF0090000F00E
:1009000021F800221146501F00F01CF80022114669
:10091000101F00F017F800221146901E00F012F888
:1009200000221146501E00F00DF80548416821F0E4
:10093000E06141F00071416008BD0000001002401C
:1009400000000140F0B40E4B1B680C46C3F30223B9
:10095000C3F10705042D00D90425191D072901D26B
:10096000002300E0DB1E012606FA05F1491E2140A6
:1009700099409E40761E16403143F0BC00F014BDF5
:100980000CED00E0064900F0070208684FF6FF038F
:10099000184040EA0220034A1043086070470000F4
:1009A0000CED00E00000FA052DE9F047DFF83C818E
:1009B00005460E46D8F8000000F00700B0420CD201
:1009C000D8F8001021F007013143C8F80010D8F81A
:1009D000000000F00700B04263D12878444C800743
:1009E00005D56068A96820F0F000084360602878A9
:1009F000C00745D06868012816D02168022816D0A3
:100A0000890700294DDA616821F003010143616023
:100A1000FFF718FF6968074641F2883001290FD0B7
:100A20000229814619D027E021688903E9E7890175
:100A3000E7E700BFFFF706FFC11B494501D918E0F2
:100A400081466068C0F381000128F3D118E000BF3F
:100A5000FFF7F8FEC11B49450BD86068C0F3810061
:100A60000228F5D10CE000BFFFF7ECFEC11B4945A1
:100A700002D90320BDE8F087606810F00C0FF3D1B5
:100A8000D8F80010404601F00701B1420BD90168C7
:100A900021F0070131430160006800F00700B04217
:100AA00001D00120E6E72878400705D56068E968AD
:100AB00020F4E060084360602878000706D560688D
:100AC000296920F4605040EAC100606000F03CF801
:100AD0006168084AC1F30311515CC84006490860C7
:100AE0000020FFF7CFFE0020C4E7000000200240F6
:100AF0000010024028670008340000200148006808
:100B00007047000034000020044805490068496827
:100B1000044AC1F30221515CC840704734000020F0
:100B20000010024038670008044805490068496819
:100B3000044AC1F3C221515CC84070473400002010
:100B4000001002403867000812A185B00FC98DE877
:100B50000F0014A0144A006804905168134801F073
:100B60000C03042B10D0082B0ED1C1F38343C9030F
:100B70001DF803000AD5516804AAC1F34041515C35
:100B80000A4A5043B0FBF1F005B0704708494843AA
:100B9000FAE7000002030405060708090A0B0C0D1A
:100BA0000E0F1010010200000010024000127A0027
:100BB00000093D002DE9F84F04460078B94DC00703
:100BC00048D06868C0F38100012807D06868C0F386
:100BD0008100022809D16868C00306D5286880030F
:100BE00038D5606800286FD034E06068B0F5803F89
:100BF0000BD010B1B0F5A02F11D0286820F48030B0
:100C00002860286820F4802002E0286840F48030C2
:100C10002860606888B1FFF715FE064609E028687D
:100C200040F480202860F0E7FFF70CFE801B64286A
:100C300075D828688003F7D50CE0FFF703FE064659
:100C400005E000BFFFF7FEFD801B6428F0D8286890
:100C50008003F7D42078944E80074FF001094FF0BD
:100C600000083BD5686810F00C0F07D06868C0F327
:100C70008100022809D16868C00306D4286880076B
:100C800014D5206901281FD110E02069B0B1C6F841
:100C90000090FFF7D7FD074605E000BFFFF7D2FD44
:100CA000C01B0228C4D828688007F7D52868616966
:100CB00020F0F80040EAC10028600FE0C6F800808C
:100CC000FFF7C0FD074606E0E9E000BFFFF7BAFD09
:100CD000C01B022823D828688007F7D42078000793
:100CE0002CD57248A169D9B1C0F80090FFF7AAFDD0
:100CF000074604E0FFF7A6FDC01B02280FD8686A6C
:100D00008007F7D56A484FF4FA510068B0FBF1F05C
:100D1000009000BF0098411E0091FAD20EE080E0E2
:100D2000C0F80080FFF78EFD074604E0FFF78AFD5C
:100D3000C01B022875D8686A8007F7D4207840075E
:100D400060D5E8690027C00008D4E86940F0805009
:100D5000E861E869012700F080500090554801687B
:100D6000C90513D40168834641F480710160FFF71F
:100D700069FD824606E000BFFFF764FDA0EB0A00B4
:100D800064284ED8DBF80000C005F5D5E0680128DE
:100D90000AD008B1052813D0286A20F00100286283
:100DA000286A20F0040002E0286A40F0010028626E
:100DB000E06841F2883B98B1FFF744FD82460BE0C2
:100DC000286A40F004002862EEE700BFFFF73AFD12
:100DD000A0EB0A0159455AD8286A8007F6D50CE0DD
:100DE000FFF730FD824605E0FFF72CFDA0EB0A017E
:100DF00059454CD8286A8007F6D41FB1E86920F01D
:100E00008050E861E06988B36968C1F38101022913
:100E100045D00228C6F8608004D0FFF713FD0446D1
:100E200038E034E0FFF70EFD074604E0FFF70AFD67
:100E3000C01B02282BD828688001F7D4206AB0F59F
:100E4000803F05D16868A16820F4003008436860DD
:100E5000D4E908010843696821F474110843686003
:100E6000C6F86090FFF7EEFC044606E015E000BF10
:100E7000FFF7E8FC001B022809D828688001F7D595
:100E80000BE000BFFFF7DEFC001B022802D90320A5
:100E9000BDE8F88F28688001F4D40020F8E701202D
:100EA000F6E7000000100240000042428004424287
:100EB000340000200070004070B5040005D000250B
:100EC000A56294F8510010B104E0012070BD2046E5
:100ED00000F034F8022084F851002068016821F005
:100EE00040010160D4E901010843D4E90312114330
:100EF000084361690843218B01F400710843E169EB
:100F00000843216A0843A16A084321680860A06970
:100F1000042101EA1040616A0843216848602168A1
:100F2000E06A08612068C16921F40061C1616565FA
:100F3000012084F85100002070BD000000B5006859
:100F40000C4985B0884212D10B48816941F4805127
:100F500081618069694600F480500490A02000906F
:100F600002200190032003900448FFF76DFB05B0B9
:100F700000BD0000003001400010024000080140A8
:100F80002DE9F84F044690F8500000269946174680
:100F90000D4601280DD04FF0010B84F850B0FFF73B
:100FA00051FC804694F85100B246012804D0022634
:100FB00094E00220BDE8F88F002D7BD0002F79D07F
:100FC000032084F85100C4F854A02563A786E7865F
:100FD000C4F838A0A4F83CA0A4F83EA0C4F844A0EB
:100FE000C4F840A0A068B0F5004F04D120680168A3
:100FF00041F48041016020680168490603D401681A
:1010000041F040010160E068B0F5006F606804D015
:1010100030B3E08E012823D03EE010B1E08E0128ED
:101020001AD135F8021B206805E02068816889071D
:1010300006D535F8021BC160E08E401EE0860BE04D
:10104000B9F1000F34D0B9F1FF3F05D0FFF7FAFB3B
:10105000A0EB080149452BD2E08E0028E5D11EE027
:10106000216815F8010B087306E02068816889077C
:1010700006D515F8011B0173E08E401EE0860BE0DB
:10108000B9F1000F14D0B9F1FF3F05D0FFF7DAFB3B
:10109000A0EB080149450BD2E08E0028E5D14B4674
:1010A000012202212046CDF8008000F096FF10B109
:1010B000032613E011E042464946204600F07DFF3A
:1010C00018B101262020606508E0A06818B92068E2
:1010D000C16880680090606D00B1012684F851B04D
:1010E00084F850A0304665E74FF0E02104280869F5
:1010F00003D020F004000861704740F00400FAE7D4
:10110000704710B5401EB0F1807F01D3012010BDA3
:101110004FF0E02460610F21601700F045F90020D6
:10112000A06107202061002010BD10B5FFF7E8FF87
:1011300010BD70B5040004D094F83900002510B13A
:1011400006E0012070BD84F83850204600F022F8F7
:10115000242084F839002068C16821F40051C1605E
:10116000204600F0E5FF2068016921F4904101610B
:101170002068416921F02A0141612068C16841F479
:101180000051C160E563202084F8390084F83A00FA
:10119000002070BD10B50068114986B088421DD18D
:1011A0001048816941F48041816180690E4C00F4EE
:1011B000804004904FF400700090022001900320C2
:1011C000039069462046FFF73FFA00212015CDE93C
:1011D0000001029169462046FFF736FA06B010BDBD
:1011E0000038014000100240000801402DE9F8439A
:1011F000044690F839001F4616460D46202850D167
:10120000A5B19EB194F8380001284AD0012084F895
:1012100038004FF00008C4F83C80212084F83900E1
:10122000FFF710FBA6848146E68426E00120BDE896
:10123000F883E08C401EE084A0684B46B0F5805FE8
:101240004FF000024FF080012046009703D001F0DC
:1012500027F8E8B90DE001F023F8C8B9288821681B
:10126000C0F308004860206908B16D1C05E0AD1CA2
:1012700003E0216815F8010B4860E08C0028D8D104
:101280004B46002240212046009701F009F808B1A2
:101290000320CCE7202084F8390084F8388000202F
:1012A000C5E70220C3E7FEE7124810B5816986B0A2
:1012B00041F00401816180690F4C00F0040004904A
:1012C000002216212046FFF7B8FA162000900120D0
:1012D00001900220039069462046FFF7B5F90021EE
:1012E0000820CDE90001029169462046FFF7ACF9DC
:1012F00006B010BD0010024000080140114810B5B2
:101300000F4901604FF48271416000218160C1602A
:101310004FF400720161C0E905122822C0E90721DB
:10132000416281620A21C162FFF7C6FD002805D033
:10133000BDE81040272104A000F0E5BF10BD00006B
:10134000003001405C0000202E2E2F5372632F735B
:1013500070692E63000000000D4810B50B49016054
:101360004FF4E1314160002181600C22C160C0E98D
:1013700004128161C161FFF7DCFE002805D0BDE8E1
:101380001040242103A000F0BEBF10BD0038014072
:10139000B40000202E2E2F5372632F757361727468
:1013A0002E630000FEE770470907090E002806DAE1
:1013B00000F00F0000F1E02080F8141D704700F1EC
:1013C000E02080F80014704730B500210A4AC3B20B
:1013D0000DE0002006E000BF01FB04041568401C7E
:1013E00080B22B55548A8442F6D8491C89B2908A1F
:1013F0008842EED830BD0000440000202DE9F047BF
:101400001F4616460D468046DDF820900CE0444607
:1014100006E04A462946204600F066FD641CA4B258
:10142000B442F6D36D1CADB2BD42F0D3BDE8F08737
:1014300070B50022094B0DE0002106E002FB041408
:101440001E68055D491C355589B25C8A8C42F5D809
:10145000521C92B2998A9142EED870BD440000208D
:101460002DE9F05F81462A481E46DDF828B08388C2
:1014700088464B4502D3C188414504D2BDE8F05FA0
:1014800024A000F041BFB088410700D0012101EB4A
:10149000D000203AF1885043484331684FF0800A29
:1014A0000F1800252FE0002424E000BFBBF1FF0F40
:1014B0003A7804F007012AFA01F002EA000201D0AA
:1014C0000AB908E082B108EB050081B209EB04001B
:1014D00080B20B9A06E008EB050081B209EB04002C
:1014E00080B25A4600F000FDE043400700D17F1C67
:1014F000641CA4B2B088A042D8D83079400700D08C
:101500007F1C6D1CADB2F088A842CCD8BDE8F09F1E
:101510004400002044656275673A205061696E742A
:101520005F447261774368617220496E7075742000
:101530006578636565647320746865206E6F726D8D
:10154000616C20646973706C61792072616E67658B
:101550000D0A00002DE9FF4F8046834885B00F46F5
:1015600084881299444502D3C088B84205D809B08E
:101570007E48BDE8F04F00F0C7BE03200024A0EB7A
:10158000420015B20FFA80FA01297AD0E9E0264626
:1015900061E000BF4FF0010908EB040007EB060B08
:1015A00002901FFA8BF1CDF8009080B24B46089A5A
:1015B00000F0CEF9A8EB040004901FFA8BF1CDF8EF
:1015C000009080B20123089A00F0C2F93819CDE9E1
:1015D000009081B2A8EB060B1FFA8BF00123089A4A
:1015E00000F0B6F9381B039081B2CDF800901FFAD5
:1015F0008BF00123089A00F0ABF90498A7EB060BD7
:101600001FFA8BF1CDF8009080B20123089A00F008
:101610009FF902981FFA8BF1CDF8009080B2012358
:10162000089A00F095F9039808EB060B81B2CDF803
:1016300000901FFA8BF00123089A00F089F90198B5
:10164000CDF8009081B21FFA8BF00123089A00F0C8
:101650007FF9761C36B2AE429CDDBAF1000F06DA95
:101660000AEB8400801D0FFA80FA08E009E0611B94
:101670000AEB81000A306D1E0FFA80FA2DB2641C4D
:1016800024B2AC4283DD09B0BDE8F08F08EB040062
:10169000012607EB050902901FFA89F1009680B236
:1016A000139B089A00F054F9A8EB040003901FFA6A
:1016B00089F1009680B2139B089A00F049F9381915
:1016C000CDE9006081B2A8EB05091FFA89F0139BF0
:1016D000089A00F03DF9A7EB040B1FFA8BF11FFAF3
:1016E00089F00096139B089A00F032F90398A7EB53
:1016F00005091FFA89F1009680B2139B089A00F041
:1017000027F902981FFA89F1009680B2139B089A74
:1017100000F01EF908EB05091FFA8BF11FFA89F09A
:101720000096139B089A00F013F90198009681B275
:101730001FFA89F0139B089A00F00AF9BAF1000F1A
:1017400005DA0AEB8400801D0FFA80FA07E0611BBE
:101750000AEB81000A306D1E0FFA80FA2DB2641C6C
:1017600024B2AC4292DD8EE744000020846700087A
:101770002DE9FE4F1D46304B16469A88824206D30D
:10178000DB888B4203D3B24201D3AB4204D2BDE823
:10179000FE4F2AA000F0B8BD83468A46321A00D513
:1017A000821B91466A1A002A00DD4A1B90464FF0C0
:1017B000FF32B34501D2012000E010460290AA4555
:1017C00000D2012209EB0804002701927F1C0D982A
:1017D000FFB2012805D10320B7FBF0F100FB117027
:1017E000F0B101200090514658460E9B0C9A00F033
:1017F000AFF800BFB8EB440F06DCB3451AD002982F
:10180000444458441FFA80FBB9EB440FDEDBAA4581
:1018100010D001994C440AEB01001FFA80FAD5E779
:1018200001200090FF22514658460E9B00F090F890
:101830000027DFE7BDE8FE8F4400002044656275A5
:10184000673A205061696E745F447261774C696ECB
:101850006520496E707574206578636565647320D2
:10186000746865206E6F726D616C20646973706C52
:1018700061792072616E67650D0A00002DE9FF4FE6
:10188000ADF5037D8846DDE990BA814600244FF42A
:10189000807715462646394642A8FEF76CFC394645
:1018A00002A8FEF768FC194842AA83884B4503D377
:1018B000C38802A8434512D215A000F025FD0DF5FE
:1018C000077DBDE8F08F00BF95FBF1F301FB1353DB
:1018D00095FBF1F530330355641C24B200E00A2176
:1018E000002DF1D11146002C08DD031913F8013C3D
:1018F0008B55761C641E36B224B2F4E7CDE900BAEB
:1019000041464846869B00F0CBF9D8E744000020CA
:1019100044656275673A205061696E745F4469730B
:101920004E756D20496E70757420657863656564C9
:101930007320746865206E6F726D616C20646973CA
:10194000706C61792072616E67650D0A000000009D
:101950002DE9F05F814626481C46884683880A990F
:1019600093464B4502D3C288424504D2BDE8F05F9E
:1019700020A000F0C9BC012901D0002634E00025D8
:10198000681E00EB440718E009EB05000026A0EBF9
:10199000040A0EE0BAF1000F0DD408EB0600001B9C
:1019A00009D481B21FFA8AF05A4600F09DFA761CDB
:1019B00036B2B742EEDC6D1C2DB2AF42E4DCBDE8BE
:1019C000F09F002509EB06077F1E09E008EB0500E4
:1019D000401E81B2B8B25A4600F086FA6D1C2DB294
:1019E000A542F3DB761C36B2A642EADBE7E700004D
:1019F0004400002044656275673A205061696E7446
:101A00005F44726177506F696E7420496E707574AF
:101A1000206578636565647320746865206E6F72F5
:101A20006D616C20646973706C61792072616E679E
:101A3000650D0A002DE9FE4F8246274891460C4667
:101A4000DDE90D2581880C9E1F46514506D3C088CF
:101A5000A04203D3494501D3B84204D2BDE8FE4FAA
:101A60001EA000F051BC002080465AB90EE000963E
:101A7000CDE9018523464A4619465046FFF778FED0
:101A8000641CA4B2BC42F2D3BDE8FE8F0096CDE93F
:101A9000018523464A4619465046FFF769FE0096DF
:101AA000CDE9018552463B4621461046FFF760FED0
:101AB0000096CDE901854A46234639461046FFF790
:101AC00057FE0096CDE901853B46524619464846E9
:101AD000FFF74EFED8E70000440000204465627521
:101AE000673A20496E707574206578636565647324
:101AF00020746865206E6F726D616C20646973700C
:101B00006C61792072616E67650D0A002DE9F05FE6
:101B10001D46904606468A46DDF828B0B6E07F2985
:101B20004FF0000054D8AA884CE053232C6843435C
:101B300014F813308B4244D153214843022101EB66
:101B4000400004EB0009002737E000242CE000BF30
:101B50004FEAE47004EB507020F00700A4EB0002A1
:101B6000BBF1FF0F99F800104FF0800020FA02F04F
:101B700001EA000101D009B907E071B10AEB0700E1
:101B800081B2301980B20B9A05E00AEB070081B2EE
:101B9000301980B25A4600F0A7F940482040072883
:101BA00001D109F10109641C2889A042D0DC287AFE
:101BB000400701D009F101097F1C6889B842C4DCE3
:101BC00002E0401C8242B0DC08F10108E8885CE0D9
:101BD0000127AB8854E053222C68424314F812C00A
:101BE0008C454CD107EB4202A45C98F8012094424A
:101BF00045D1532250430222296802EB400001EBF9
:101C00000009002737E000242CE000BF4FEAE47011
:101C100004EB507020F00700A4EB0002BBF1FF0FB3
:101C200099F800104FF0800020FA02F001EA00015C
:101C300001D009B907E071B10AEB070081B2301990
:101C400080B20B9A05E00AEB070081B2301980B22E
:101C50005A4600F049F911482040072801D109F1FE
:101C60000109641C2889A042D0DC287A400701D0F1
:101C700009F101097F1C6889B842C4DC02E0401CFC
:101C80008342A8DC288908F10208064498F800106D
:101C900000297FF444AFBDE8F09F000007000080FA
:101CA0002DE9FC5F80461B4889460D4681884446E5
:101CB000DDF834B01E461746A14203D3C1888246E0
:101CC000A94222D2BDE8FC5F134800F01DBBB088DA
:101CD000BAF804300119994203D9F18844462944DD
:101CE0008DB2F188BAF806002944814201D94446F0
:101CF0004D460C99CDE9001B334629462046FFF797
:101D0000AFFBB0887F1C204484B23A78002ADED131
:101D1000BDE8FC9F44000020406700082DE9FF4F0C
:101D200085B046A117468046DDE9126507C902ABBA
:101D30004FF00A0983E8070039790898B1FBF9F1F7
:101D40009A4684881AF80120CDE900654046089B30
:101D50000699FFF785FB397908EB040BB1FBF9F223
:101D600009FB12111FFA8BF01AF80120CDE900656A
:101D7000089B0699FFF774FBCDE900650BEB940017
:101D800000EB540080B23A22089B0699FFF768FBEB
:101D9000797908EB4400B1FBF9F100EB54001AF833
:101DA0000120CDE9006580B2089B0699FFF758FB3A
:101DB000797904EB440BB1FBF9F209FB12110BEB3F
:101DC00008001AF80120CDE9006500EB540080B24C
:101DD000089B0699FFF744FB08EB8400CDE90065FA
:101DE00000EB5400A0EB940080B23A22089B0699C5
:101DF000FFF736FBB979089BB1FBF9F11AF801201E
:101E000004EB8401CDE9006501EB080080B206997E
:101E1000FFF726FBBA7908EB4B00B2FBF9F109FB9F
:101E2000112180B21AF80120CDE90065089B0699BE
:101E3000FFF716FB09B0BDE8F08F000030313233F8
:101E400034353637383900002DE9F041134C0E4651
:101E50000699206026816281A1811F4615464FF0B8
:101E6000000870074FEAD60100D0491C6182A582A4
:101E70002A460BA000F048FA0F2112A000F044FA05
:101E8000E781A4F810802FB1B42F03D0A580E6809D
:101E9000BDE8F081A680E580FAE70000440000205C
:101EA000576964746842797465203D2025642C204C
:101EB00048656967687442797465203D2025640D22
:101EC0000A000000204550445F5749445448202FE1
:101ED0002038203D2025640D0A00000001490860DB
:101EE0007047000044000020F0B4284CA3888342CF
:101EF00034D3E3888B4231D32346E7891E895D8939
:101F0000CFB15A2F1AD0B42F1CD0B7F5877F38D154
:101F10000B46281A401E80B2218AD9B1012916D059
:101F2000022904D003292CD1F11A491E8BB2281A98
:101F3000401E80B20EE003460846EDE7711A491EC6
:101F40008BB2E9E7301A401E83B2681AE2E7F11A51
:101F5000491E8BB29E4201D3854203D2F0BC0CA035
:101F600000F0D2B9618A414301EBD305216880209A
:101F7000002A4C5D03F0070220FA02F003D0204350
:101F80004855F0BC704784434C55FAE744000020A4
:101F900044656275673A20457863656564696E6774
:101FA00020646973706C617920626F756E64617210
:101FB0006965730D0A000000704738B50B46009242
:101FC00004460022802100F008F8002804D0606D4B
:101FD00040F020006065032038BD2DE9F0411D462A
:101FE00017460E460446DDF8188035E0681C33D0ED
:101FF0002DB1FEF727FCA0EB0800A8422CD32068E7
:10200000416821F0E00141606068B0F5827F0BD14A
:10201000A068B0F5004F02D0B0F5806F04D1206801
:10202000016821F040010160A06AB0F5005F0AD1AB
:10203000206801684DF6FF72114001602068016858
:1020400041F400510160012084F85100002084F81F
:1020500050000320BDE8F0812068806836EA000067
:1020600004D00020B842C1D10020F3E70120F9E7F5
:10207000704710B5FEF7ECFBBDE81040FFF755B810
:1020800030B58FB001210804CDE90010002402947E
:1020900002250491CDE907504FF4E01009906846FD
:1020A000FEF788FD00B1FEE70F20CDE90A054FF4E9
:1020B0008060CDE90C4002210AA80E94FEF774FC62
:1020C00000B1FEE7FEF71AFD4FF47A71B0FBF1F0B4
:1020D000FFF717F80420FFF707F800221146501EFB
:1020E000FEF730FC0FB030BD0D48016841F0010132
:1020F000016041680B4A1140416001680A4A114081
:102100000160016821F480210160416821F4FE0131
:1021100041604FF41F0181600449C00308607047AB
:10212000001002400000FFF8FFFFF6FE08ED00E09F
:102130002DE9F041044600680169E26821F440514C
:10214000114301612169A06808436169084321685E
:10215000CA6841F20C639A430243CA60206841692D
:10216000A26921F44071114341614C492068642502
:10217000322688423CD1FEF7D7FC00EBC00101EBD0
:10218000001061688900B0FBF1F7FEF7CDFC00EBB1
:10219000C00101EB00106168B0468900B0FBF1F0AE
:1021A000B0FBF5F06FF01801484307EB800106EB38
:1021B0000110B0FBF5F000F0F006FEF7B5FC00EB07
:1021C000C00101EB001061688900B0FBF1F0B0FBC9
:1021D000F5F006EB0016FEF7A7FC00EBC00101EBE3
:1021E000001061688900B0FBF1F7FEF79DFC3BE051
:1021F000FEF78AFC00EBC00101EB0010616889006A
:10220000B0FBF1F7FEF780FC00EBC00101EB001022
:102210006168B0468900B0FBF1F0B0FBF5F06FF0FB
:102220001801484307EB800106EB0110B0FBF5F005
:1022300000F0F006FEF768FC00EBC00101EB0010B7
:1022400061688900B0FBF1F0B0FBF5F006EB001619
:10225000FEF75AFC00EBC00101EB00106168890039
:10226000B0FBF1F7FEF750FC00EBC00101EB0010F2
:1022700061688900B0FBF1F0B0FBF5F06FF0180178
:10228000484307EB800108EB0110B0FBF5F0216833
:1022900000F00F0030448860BDE8F0810038014054
:1022A0002DE9F041984617460E460446069D1DE06E
:1022B000681C1BD02DB1FEF7C5FAA0EB0800A842A0
:1022C00014D92068C16821F4D071C16020684169C7
:1022D00021F001014161202084F8390084F83A009E
:1022E000002084F838000320BDE8F08120680068F1
:1022F00036EA000004D00020B842D9D00020F3E72D
:102300000120F9E7FEE7FEE70FB4054B10B503A97E
:10231000044A029800F018F810BC5DF814FB0000A5
:10232000012500083800002002E008C8121F08C17B
:10233000002AFAD170477047002001E001C1121F46
:10234000002AFBD1704700002DE9FF4F8BB09A4661
:102350000F460546002606E025280BD052460D996B
:1023600090476D1C761C28780028F5D10FB03046B8
:10237000BDE8F08F0024A0460122604900E004433C
:1023800015F8013F203B02FA03F00842F7D1287804
:102390002E2817D115F8010F44F004042A280ED076
:1023A0006FF02F022878A0F1300109290AD808EB34
:1023B000880102EB410100EB01086D1CF2E757F8C0
:1023C000048B6D1C287869283ED006DC0028CDD00F
:1023D00063280BD0642804D136E0732810D0752808
:1023E0004BD052460D999047761C85E017F8040BA8
:1023F0008DF8000000208DF80100E946012003E07F
:1024000057F8049B4FF0FF3061074FF0000401D4F0
:102410000AE0641C44450DDA8442FADB19F8041022
:102420000029F6D106E0641C8442FCDB19F8041094
:102430000029F8D1264404E019F8010B52460D9901
:102440009047641EF8D257E001CF4FF00A0B0028E6
:1024500002DA40422D2102E0210504D52B218DF81E
:102460002410012103E0E10705D02021F7E70DF159
:10247000200908910CE00021F9E701CF4FF00A0B89
:10248000F9E75946FDF782FE01F1300209F8012D06
:102490000028F6D1ADEB090000F1200B600701D454
:1024A0004FF00108D84502DDA8EB0B0000E000204A
:1024B0008046002406E009A85246005D0D99904729
:1024C000641C761C08988442F5DB04E030205246F8
:1024D0000D999047761CB8F10001A8F10108F5DCD0
:1024E00005E019F8010B52460D999047761CBBF197
:1024F0000001ABF1010BF4DC6D1C34E7092801008D
:1025000013B54FF6FF73012269460248FEF76EFECF
:1025100000981CBDB40000202DE9F04385B0FEF703
:102520009FF9FFF7ADFDFEF7BFFEFEF715FFFEF7C3
:10253000E5FEFDF70DFF10B195A0FFF7E5FEFDF7F5
:102540005CFE4FF4FA773846FEF76CF840F6C42488
:10255000204600F075F95FEA00097CD0214692A080
:10256000FFF7D2FE93A0FFF7CFFEFF264FF487734D
:10257000D422682148460096FFF766FC4846FFF7DC
:10258000ADFCFF20FEF720FF8FA0FFF7BDFE484601
:10259000FFF7A4FCFF20FEF717FF9148FEF748FF66
:1025A0004846FDF755FEB800FEF73CF84846FFF7F1
:1025B00095FCFF20FEF708FF0024CDE90046052129
:1025C000884B89A20846FFF76BFBCDE90046854B97
:1025D000884A19210520FFF751F9CDE90046864BBD
:1025E00086A22D210520FFF791FACDE90064854BE5
:1025F00085A241210520FFF789FA4846FDF728FE0C
:102600004FF47A784046FEF70DF8FF20FEF7DCFE27
:1026100001252B4600220A2105200095FFF798F995
:1026200002230022192105200095FFF791F90323C9
:102630000022282105200095FFF78AF904230022B3
:10264000372105200095FFF783F93C2346220A2114
:102650001420009400E05CE0CDE90145FFF788F824
:1026600000943C2314220A214620CDE90145FFF7BE
:102670007FF8AA22CDE9004537230F2110460295A5
:10268000FFF776F82323CDE90045BE2219469620B0
:102690000295FFF76DF800943C2346220A2114208E
:1026A000CDE90145FFF7C6F9CDE900453C2382227B
:1026B0000A2155200295FFF7BDF90023142223219A
:1026C000AA20CDE90045FEF745FF0095002314221E
:1026D0005021AA200195FEF73DFF4846FDF7B8FDC1
:1026E0004046FDF79FFF4846FFF7F8FB0C208DF8AA
:1026F000100022208DF811003820464D8DF8120070
:102700009DF81200401CC0B28DF812003C2808D081
:1027100021E041A0FFF7F8FD05B04FF0FF30BDE824
:10272000F0839DF81100401CC0B28DF811008DF8A7
:1027300012403C280FD19DF81000401CC0B28DF80B
:1027400010008DF81140182805D18DF810408DF833
:1027500011408DF812400096E8884121413083B243
:10276000A888C0EBC0000F3082B20F20FEF746FEF3
:10277000CDE90064274B03AA41210F20FFF7CEFAD1
:102780004846FDF796FD3846FDF74CFFB8E70000D8
:10279000652D506170657220696E6974206661698B
:1027A0006C65640D0A00000073697A65203D202580
:1027B000640D0A005061696E745F4E6577496D6102
:1027C00067650D0A0000000073686F7720696D610E
:1027D000676520666F722061727261790D0A000070
:1027E000AC2800080C000020776176657368617280
:1027F0006500000015CD5B0700000020C4E3BAC3EC
:10280000616263001C000020CEA2D1A9B5E7D7D336
:1028100000000000140000204661696C65642074AB
:102820006F206170706C7920666F7220626C6163DA
:102830006B206D656D6F72792E2E2E0D0A000000D3
:10284000F0B50B30154D20F007010024144A0FE0BD
:1028500003688B420BD38B4205D95E1A4318476835
:10286000C3E9006700E04368136002C004E0021D92
:1028700010680028ECD12046002802D1286808B151
:102880000020F0BD064A07481060074A121A22F0DD
:102890000702C0E9002401202860D7E7400000209B
:1028A0003C000020FC000020F8900020FFFFFFFF0C
:1028B000FFFFFFFFFFFFFFFFFFFFFFFFFFFFFFFF28
:1028C000FFFFFFFFFFFFFFFFFFFFFFFFFFFFFFFF18
:1028D000FFFFFFFFFFFFFFFFFFFFFFFFFFFFFFFF08
:1028E000FFFFFFFFFFFFFFFFFFFFFFFFFFFFFFFFF8
:1028F000FFFFFFFFFFFFFFFFFFFFFFFFFFFFFFFFE8
:10290000FFFFFFFFFFFFFFFFFFFFFFFFFFFFFFFFD7
:10291000FFFFFFFFFFFFFFFFFFFFFFFFFFFFFFFFC7
:10292000FFFFFFFFFFFFFFFFFFFFFFFFFFFFFFFFB7
:10293000FFFFFFFFFFFFFFFFFFFFFFFFFFFFFFFFA7
:10294000FFFFFFFFFFFFFFFFFFFFFFFFFFFFFFFF97
:10295000FFFFFFFFFFFFFFFFFFFFFFFC03F3FFFF92
:10296000FFFFFFFFFFFFFFFFF800E3FFFFFFFFFF99
:10297000FFFFFFFFFFF00063FFFFFFFFFFFFFFFF11
:10298000FFFFE7F823FFFFFFFFFFFFFFFFFFFFC78A
:10299000F803FFFFFFFFFFFFFFFFFFFF8BF983FF40
:1029A000FFFFFFFFFFFFFFFFFF99F983FFFFFFFF1F
:1029B000FFFFFFFFFFFF99FD83FFFFFFFFFFFFFF0B
:1029C000FFFFFF1BFFC3FFFFFE7FFFFFFFFFFFFEB9
:1029D0003FFFC3FFF1FE7FFFFFFFFFFF803FFFC30D
:1029E000FFF1FE7FFFFFFFFFE03FFFFF83FFF11ED0
:1029F0007FFFFFFFFFC0FFFFFF83FFF11E7FFFFF91
:102A0000FFFFC3FFFFFF03FFF11E7FFFFFFFFF8FED
:102A1000FFFFFF03FFF11E7FFFFBFFFF3FFFFFFFF5
:102A200003FFF11E7FFFFBFFFE3FFFFFFE03FFF1F1
:102A30001E7FFFF3FFF87FFFFFFE03FFF11E7FFF06
:102A4000E1FFF0FFFFFFFC23FFF11E7FFFE1FFC36B
:102A5000FFFFFFC0E3FFF11E7FFFC4FF87FFFFFF03
:102A600001E3FFF01E7FFFC4FF8FFFFFFE01E1FFC8
:102A7000F0007FFFCCFF8FFFFFF807E1FFF0007F42
:102A8000FFCCFF83FFFFF83FF1FFF0007FFF8CFFDB
:102A9000C0003FF80031FFFFFFFFFF9CFFE0003F59
:102AA000FE0001FFFFFFFFFF9CFFE0003FFF000073
:102AB000FFF80F7FFF9CFF007FFFFFFF087FF80FED
:102AC0007FFF9CFF01FFFFFFFF807FF8067FFF9CD9
:102AD000FE07FFFFFFFFC07FF1C47FFF9CFC1FFFCD
:102AE000FFFFFFC07FF1C07FFF9CF87FFFFFFFFF6C
:102AF000E07FF1C0FFFF9CF0FFFFFFFFFFE07FF1F1
:102B0000C0FFFF9CE1FFFFFFFFFFF07FF1C1FFFF70
:102B10009C03FFFFFFFFFFF07FF1C3FFFF9807FF5C
:102B2000FFFFFFFFF07FF1C3FFFF980FFFFFFFFFE5
:102B3000FFF07FF1C3FFFF981FFFFFFFFFFFF07F54
:102B4000F1C7FFFF803FFFFFFFFFFFE07FF1C7FFFF
:102B5000FF803FFFFFFFFFFFE3FFF187FFFF807F65
:102B6000FFFFFFFFFFE3FFF0007FFF80FFFFFFFF9E
:102B7000F80007FFF0007FFFC0FFFFFFFFC0FE0F60
:102B8000FFF000FFFFC0FFFFFFFF07FE1FFFFFFF7B
:102B9000FFFFC1FFFFFFF81FFF0FFFFFFFFFFFE178
:102BA000FFFFFFF07FFF87FFF8007FFFE1FFFFFFE0
:102BB000E0FFFFC3FFF8007FFFE1FFFFFFE1FFFF42
:102BC000E1FFF8007FFFF1FFFFFFE7FFFFF8FFF0F5
:102BD000E7FFFFF9FFFFFFE7FFFFF87FF1E7FFFFE8
:102BE000F8FFFFFF8FFFFFF87FF1E7FFFFF8FFFF20
:102BF000FE1FFFFFFC7FF1E7FFFFF8FFFFF01FFF65
:102C0000FFFC7FF1E7FFFFFC7FFFC00FFFFFFC7FB2
:102C1000F1E7FFFFFC7FFFFFC0FFFFFC7FF1E7FF55
:102C2000FFFC3FFFFFC0FFFFFC7FF1E7FFFFFC3F22
:102C3000FFFFC1FFFFF87FF0E7FFFFFE1FFFFFC3AD
:102C4000FBFFF87FF8007FFFFE1FFFFFC3FBFFF8CD
:102C50007FF8007FFFFF0FFFFFE3E39FF87FFC009B
:102C60007FFFFF0FFFFFE1C00FF87FFFFFFFFFFFB8
:102C70008007FFE0800FF87FFFFFFFFFFF80007FEE
:102C8000E0000FF87FF0007FFFFFC0003FF0001F63
:102C9000F87FF0007FFFFFF0000FFF833FF87FF029
:102CA000007FFFFFFC0007FFE71FF87FFF1FFFFF0C
:102CB000FFFE0001FFFF0FF87FFF1FFFFFFFFF0078
:102CC00000FFFF0FF0FFFF1FFFFFFFFF00007FFF70
:102CD0000FF1FFFF1FFFFFFFFF80001FFF0FF1FF3E
:102CE000FF1FFFFFFFFFE0001FFF0FF1FFFF1FFFB0
:102CF000FFFFFFFF001FFF0FF1FFFF1FFFFFFFFFA1
:102D0000FF800FFF0FF9FFFF1FFFFFFFFFFFF80F0F
:102D1000FF0FF8FFFF1FFFFFFFFFFFFE0FFF0FF882
:102D20007FFF1FFFFFFFFFFFFF67FF0FF87FF00030
:102D30007FFFFFFFFFFFE3FE0FF87FF0007FFFFF45
:102D4000FFFFFFE1FE0FF8FFF0007FFFFFFFFFFF37
:102D5000F07E0FF1FFFFFFFFFFFFFFFFFFF87E0F89
:102D6000F1FFFFE1FFFFFFFFFFFFFC7E0FF1FFF32D
:102D700080FFFFFFFFFFFFFC3E0FF1FFF1007FFF31
:102D8000FFFFFFFFFE3F1FF0FFF11C7FFFFFFFFF74
:102D9000FFFF3FFFF8FFF11C7FFFFFFFFFFFFF1F5B
:102DA000FFF87FF11C7FFFFFFFFFFFFF9FFFF87F12
:102DB000F11C7FFFFFFFFFFFFF9FFFF87FF11C7FEC
:102DC000FFFFFFFFFFFF9FFFF87FF11C7FFFFFFF6B
:102DD000FFFFFF8FFFF0FFF11C7FFFFFFFFFFFFFF3
:102DE0000FFFF1FFF11C7FFFFFFFFFFE00003FF12F
:102DF000FFF11C7FFFFFFFFFC0000007F1FFF01C89
:102E00007FFFFFFFFF80000003F0FFF81C7FFFFF44
:102E1000FFF003FFFC0000FFF81C7FFFFFFFC01F57
:102E2000800380007FF83C7FFFFFFF003000001828
:102E3000007FFFFFFFFFFFFE07C0000000007FFFD5
:102E4000FFFFFFFFF81F00000001007FF1FE7FFF82
:102E5000FFF07E0000000180FFF1FE7FFFFFE0FF3A
:102E600000000001C1FFF11E7FFFFF81FF00000095
:102E70000041FFF11E7FFFFF03FE00800000387F4E
:102E8000F11E7FFFFE07FF01C000003C7FF11E7FA7
:102E9000FFFC0FFF800000001C7FF11E7FFFFC1F66
:102EA000FF000000000E7FF11E7FFFFC3FFE0000D0
:102EB00000000E3FF11E7FFFFC7FFC0000000007BA
:102EC0001FF11E7FFFF8FFFE00000000031FF11E30
:102ED0007FFFF1FFFFE0000000018FF01E7FFFE3A6
:102EE000FFFFF8000000018FF01E7FFFE3FFFFFCF3
:102EF000000000000FF0007FFFC3FFFFDF80000035
:102F0000000FF0007FFFC3FFFFCFE00000000FF0D5
:102F1000007FFFC3FFFFC7F00000000FFFFFFFFFB0
:102F2000C7FFFFE1FC0000000FF3FFFFFF87FFFF7B
:102F3000F01F8000010FF1FFFFFF8FFFFFFE03FF77
:102F4000F0067FF87FFFFF0FFFFFFF803FFE187F37
:102F5000F83FFFFF1FFFFFFFF00001C0FFFE1FFF54
:102F6000FF1FFFFFFFFF000001FFFF07FFFF1FFF25
:102F7000FFFFFFE00001FFFF83FFFF0FFFFFFFFFE9
:102F8000FE0003FFFFE0FFFF0FFFFFFFFFFFFFE378
:102F9000FFFFF07FFF0FFFFFFFFFFFFFE3FFFFF8E3
:102FA0007FFF0FFFFFFFFFFFFFE3FFFFE0FFFF0FCC
:102FB000FFFFFFFFFFFFE3FFFFC1FFFF87FFFFFFF3
:102FC000FFFFFFE3FFFF07FFFF87FFFFFFFFFFFF9D
:102FD000E3FFFE0FFFFF83FFFFFFFFFFFFE3FFF8AD
:102FE0001FFFFFC3FFFFFFFFFFFFE3FFF07FFFFFB8
:102FF000E3FFFFFFFFFFFFF3FFF1FFFFFFE3FFFF33
:10300000FFFFFFFFF3FFF3FFFFFFF1FFFFFFFFFFF6
:10301000FFF3FFFFFFFFFFF8FFFFFFFFFFFFF3FFDF
:10302000FFFFFFFFFC7FFFFFFFFFFFF3FFFC00FF41
:10303000FFFC7FFFFFFFFFFFF3FFF8007FFFFC3F78
:10304000FFF8FFFFFFF3FFF8007FFFFE0FFFF0FF29
:10305000FFFFF3FFF8C4FFFFFF87FFC0FFFFFFF193
:10306000FFF1E7FFFFFFC3FFC1FFFFFFF1FFF1E744
:10307000FFFFFFF0FF83FFFFFFF1FFF1E7FFFFFF1F
:10308000F8FF07FFFFFFF1FFF1E7FFFFFFF8FE0F7B
:10309000FFFFFFF1FFF1E7FFFFFFFCFE3FFFFFFF38
:1030A000F1FFF1E7FFFFFFFE7FFFFFFFFFF1FFF101
:1030B000E7FFFFFFFF7FFFFFFFFFF1FFF1E7FFFFEC
:1030C000FFFF3FFFFFFFFFF1FFF0E7FFFFFFFF3FC5
:1030D000FFFFFFFFF1FFF8007FFFFFFF3FFFFFFF54
:1030E000FFF1FFF8007FFFFFFF1FFFFFFFFFF1FF72
:1030F000FC007FFFFFFF1FFFFFFFFFF1FFFFFFFF50
:10310000FFFFFF1FFFFFFFFFF1FFFFFFFFFFFFFFBD
:103110001FFFFFFFFFF0FFF000FFFFFFFF1FFFFF9C
:10312000FFFFF07FF0007FFFFFFF0FFFFFFFFFF0CB
:103130007FF0007FFFFFFF0FFFFFFFFFF07FFFF833
:103140007FFFFFFF0FFFFFFFFFF07FFFFC7FFFFF11
:10315000FF0FFFFFFFFFF07FFFFC7FFFFFFF8FFFF1
:10316000FFFFFFF07FFFFC7FFFFFFF87FFFFFFFFF9
:10317000F07FFFFC7FFFFFFFC7FFFFFFFFF07FFF38
:10318000FC7FFFFFFFC3FFFFFFFFF07FFFFC7FFF20
:10319000FFFFC3FFFFFFFFF07FF0007FFFFFFFC3D4
:1031A000FFFFFFFFE07FF0007FFFFFFFC3FFFFFF98
:1031B000FFE07FF0007FFFFFFFE1FFFFFFFFE07F09
:1031C000FFFC7FFFFFFFE0FFFFFFFFE07FFFFC7FD3
:1031D000FFFFFFF0FFFFFFFFC07FFFFC7FFFFFFF50
:1031E000F87FFFFFFFC07FFFFC7FFFFFFFF87FFF3F
:1031F000FFFFC07FFFFC7FFFFFFFF83FFFFFFFC423
:103200007FFFFC7FFFFFFFFC3FFFFFFF867FFFFC90
:103210007FFFFFFFFE3FFFFFFF847FFFF87FFFFF81
:10322000FFFE3FFFFFFF0C7FF0007FFFFFFFFF0F60
:10323000FFFFFE0C7FF000FFFFFFFFFFC7FFFFFE59
:103240001C7FF001FFFFFFFFFFC3FFFFFE1C7FFF9E
:10325000FFFFFFFFFFFFC1FFFFFE3C7FFFFFFFFF00
:10326000FFFFFFE07FFFFE7C7FFFFFFFFFFFFFFF11
:10327000F03FFFFCFC7FFFFFFFFFFFFFFFF81FFF9A
:10328000F8FC7FFFFFFFFFFFFFFFFE0FFFE1FC7F6A
:10329000FFFFFFFFFFFFFFFFF000003C7FFFFFFF8E
:1032A000FFFFFFFFFFFF00001C7FFFFFFFFFFFFF8F
:1032B000FFFFFFF8201C7FFFFFFFFFFFFFFFFFFF67
:1032C000FC700C7FFFFFFFFFFFFFFFFFFFFCF00C18
:1032D0007FFFFFFFFFFFFFFFFFFFFC780C7FFFFF7B
:1032E000FFFFFFFFFFFFFFFE380C7FFFFFFFFFFF29
:1032F000FFFFFFFFFE0C1C7FFFFFFFFFFFFFFFFF35
:10330000FFFF001C7FFFFFFFFFFFFFFFFFFFFF80AE
:103310007C7FFFFFFFFFFFFFFFFFFFFFC0FC7FFF82
:10332000FFFFFFFFFFFFFFFFFFFFFFFFFFFFFFFFAD
:10333000FFFFFFFFFFFFFFFFFFFFFFFFFFFFFFFF9D
:10334000FFFFFFFFFFFFFFFFFFFFFFFFFFFFFFFF8D
:10335000FFFFFFFFFFFFFFFFFFFFFFFFFFFFFFFF7D
:10336000FFFFFFFFFFFFFFFFFFFFFFFFFFFFFFFF6D
:10337000000800000002602828000001001400007E
:103380000001001212000001000000000000000017
:1033900000000000000000000000000040080000E5
:1033A0000002902828000001401400000001A01233
:1033B00012000001000000000000000000000000FA
:1033C000000000000000401700000002900F0F00F6
:1033D0000003400A01000001A00E0E0000020000E0
:1033E00000000000000000000000000000000000DD
:1033F00080080000000290282800000180140000CE
:103400000001501212000001000000000000000046
:103410000000000000000000000080080000000222
:1034200090282800000180140000000150121200B2
:10343000000100000000000000000000000000008B
:103440000000000000190100000100000000000061
:10345000000000000000000000000000000000006C
:10346000000000000000000000000000000000005C
:103470000019010000010000000000000000000031
:10348000000000000000000000000000000000003C
:103490000000000000000000000080190100000191
:1034A000000000000000000000000000000000001C
:1034B000000000000000000000000000000000000C
:1034C00000000000401901000001000000000000A1
:1034D00000000000000000000000000000000000EC
:1034E00000000000000000000000000000000019C3
:1034F00001000001000000000000000000000000CA
:1035000000000000000000000000000000000000BB
:103510000000000000000000C4E300000000000004
:1035200000001DC01D803BFF3B073F777E76F87093
:10353000FBFEFBFE3F773F773E73387038703BE011
:10354000000000000000000000000000000000007B
:10355000000000000000000000000000000000006B
:10356000000000000000000000000000000000005B
:10357000000000000000000000000000000000004B
:10358000000000000000000000000000000000003B
:10359000000000000000000000000000000000002B
:1035A000000000000000000000000000000000001B
:1035B0000000000000000000000000000000BAC38E
:1035C0000000000000000000300073FF700FFE1EBE
:1035D0007E3C6E38EE30EFFFFC307C3038303E30D1
:1035E0007E30E030C1F0000000000000000000006C
:1035F00000000000000000000000000000000000CB
:1036000000000000000000000000000000000000BA
:1036100000000000000000000000000000000000AA
:10362000000000000000000000000000000000009A
:10363000000000000000000000000000000000008A
:10364000000000000000000000000000000000007A
:10365000000000000000000000000000000000006A
:1036600000000000CAF70000000000000000300E5B
:10367000300E3FEE30EEFCFF76CE77FE7BFEFFFE97
:10368000F3DEF3CE37EE3E6E3C0E303E000000001F
:10369000000000000000000000000000000000002A
:1036A000000000000000000000000000000000001A
:1036B000000000000000000000000000000000000A
:1036C00000000000000000000000000000000000FA
:1036D00000000000000000000000000000000000EA
:1036E00000000000000000000000000000000000DA
:1036F00000000000000000000000000000000000CA
:1037000000000000000000000000DDAE000000002E
:10371000000000000670FFFF3E7038007FFFE000F1
:10372000FFFC3B8C39CCFFFF739C71DC7FFF001CDE
:1037300001F8000000000000000000000000000090
:103740000000000000000000000000000000000079
:103750000000000000000000000000000000000069
:103760000000000000000000000000000000000059
:103770000000000000000000000000000000000049
:103780000000000000000000000000000000000039
:103790000000000000000000000000000000000029
:1037A0000000000000000000000000000000000019
:1037B000C5C90000000000000000E01FFFF03E004F
:1037C0000E1FCFFBFFF83FFF0FFF7FD87FDC6FCED0
:1037D000EDFFFDF7F9C00000000000000000000050
:1037E00000000000000000000000000000000000D9
:1037F00000000000000000000000000000000000C9
:1038000000000000000000000000000000000000B8
:1038100000000000000000000000000000000000A8
:103820000000000000000000000000000000000098
:103830000000000000000000000000000000000088
:103840000000000000000000000000000000000078
:103850000000000000006100000000000000000007
:1038600000000000000000003E00670007800F809D
:103870007F80E380E780E7807F8000000000000019
:103880000000000000000000000000000000000038
:103890000000000000000000000000000000000028
:1038A0000000000000000000000000000000000018
:1038B0000000000000000000000000000000000008
:1038C00000000000000000000000000000000000F8
:1038D00000000000000000000000000000000000E8
:1038E00000000000000000000000000000000000D8
:1038F0000000000000000000000000006200000066
:1039000000000000000070007000700070007F0078
:103910007B8071C071C071C071C071C07B807F003D
:103920000000000000000000000000000000000097
:103930000000000000000000000000000000000087
:103940000000000000000000000000000000000077
:103950000000000000000000000000000000000067
:103960000000000000000000000000000000000057
:103970000000000000000000000000000000000047
:103980000000000000000000000000000000000037
:103990000000000000000000000000000000000027
:1039A00000006300000000000000000000000000B4
:1039B000000000003F007300F000E000E000E000C5
:1039C000F00073003F000000000000000000000055
:1039D00000000000000000000000000000000000E7
:1039E00000000000000000000000000000000000D7
:1039F00000000000000000000000000000000000C7
:103A000000000000000000000000000000000000B6
:103A100000000000000000000000000000000000A6
:103A20000000000000000000000000000000000096
:103A30000000000000000000000000000000000086
:103A40000000000000000000410000000000000035
:103A5000000000000E001F001F001F003B803B8085
:103A600071807FC071C0E0E0E0E0E0E000000000B5
:103A70000000000000000000000000000000000046
:103A80000000000000000000000000000000000036
:103A90000000000000000000000000000000000026
:103AA0000000000000000000000000000000000016
:103AB0000000000000000000000000000000000006
:103AC00000000000000000000000000000000000F6
:103AD00000000000000000000000000000000000E6
:103AE00000000000000000000000000000000000D6
:103AF00000000000000000000000000000000000C6
:103B000000000000000000000000000000000000B5
:103B10000C000C000C000C000C000C000C000C0045
:103B200000000C0000000000000000000000000089
:103B300000001DC01DC00880088008800000000033
:103B40000000000000000000000000000000000075
:103B50000D800D800D800D803FC01B003FC01B00FD
:103B60001B001B001B000000000000000000040000
:103B70001F803180318038001E000F0003803180AB
:103B800031803F000400040000000000000000003D
:103B900018002400240018C007801E003180024055
:103BA0000240018000000000000000000000000052
:103BB00000000F001800180018000C001D803700CE
:103BC00033001D8000000000000000000000000025
:103BD00000000700070002000200020000000000D1
:103BE00000000000000000000000000000000000D5
:103BF0000300030006000E000C000C000C000C007B
:103C00000E0006000300030000000000000000009A
:103C1000180018000C00060006000600060006004A
:103C200006000C001C00180000000000000000004E
:103C3000060006003FC03FC00F001F801980000033
:103C40000000000000000000000000000000000074
:103C5000000000000400040004003F800400040091
:103C60000400000000000000000000000000000050
:103C70000000000000000000000000000000000044
:103C8000060004000C00080008000000000000000E
:103C9000000000000000000000003F800000000065
:103CA0000000000000000000000000000000000014
:103CB0000000000000000000000000000000000004
:103CC0000C000C000000000000000000000000C01C
:103CD00000C0018001800300030006000C000C00FE
:103CE0001800180030003000000000000000000044
:103CF0000E001B0031803180318031803180318075
:103D00001B000E000000000000000000000000008A
:103D100006003E000600060006000600060006003B
:103D200006003FC00000000000000000000000008E
:103D30000F00198031803180030006000C0018004C
:103D400030003F8000000000000000000000000084
:103D50003F006180018003001F000380018001801B
:103D600061803F0000000000000000000000000033
:103D7000070007000F000B001B00130033003F80FB
:103D800003000F80000000000000000000000000A1
:103D90001F801800180018001F001180018001808A
:103DA00021801F0000000000000000000000000053
:103DB00007801C00180030003700398031803180C6
:103DC00019800F000000000000000000000000004B
:103DD0007F004300030006000600060006000C00FA
:103DE0000C000C00000000000000000000000000BB
:103DF0001F003180318031801F003180318031805F
:103E000031801F00000000000000000000000000E2
:103E10001E0033003180318033801D80018003001B
:103E200007003C000000000000000000000000004F
:103E30000000000000000C000C000000000000006A
:103E40000C000C000000000000000000000000005A
:103E5000000000000000030003000000000000005C
:103E60000600040008000800000000000000000038
:103E7000000000C0030004001800600018000400E7
:103E8000030000C00000000000000000000000006F
:103E900000000000000000007FC000007FC00000A4
:103EA0000000000000000000000000000000000012
:103EB0000000600018000400030000C003000400BC
:103EC000180060000000000000000000000000007A
:103ED00000001F0031803180018007000C000C00C1
:103EE00000000C00000000000000000000000000C6
:103EF0000E001100210021002700290029002700C1
:103F0000200011000E000000000000000000000072
:103F100000003F000F000900198019801F8030C089
:103F200030C079E000000000000000000000000048
:103F300000007F003180318031803F00318031804E
:103F400031807F0000000000000000000000000041
:103F500000001F4030C060406000600060006040B2
:103F600030801F0000000000000000000000000082
:103F700000007F00318030C030C030C030C030C061
:103F800031807F0000000000000000000000000001
:103F900000007F803080308032003E003200308070
:103FA00030807F8000000000000000000000000062
:103FB00000007FC03040304032003E003200300010
:103FC00030007C0000000000000000000000000045
:103FD00000001E80318060806000600067C06180EA
:103FE00031801F0000000000000000000000000001
:103FF00000007BC03180318031803F803180318052
:1040000031807BC0000000000000000000000000C4
:1040100000003FC00600060006000600060006007D
:1040200006003FC00000000000000000000000008B
:1040300000001FC0030003000300030063006300CF
:1040400063003E00000000000000000000000000CF
:1040500000007BC03180330036003C003E0033005E
:10406000318079C000000000000000000000000066
:1040700000007E00180018001800180018401840B2
:1040800018407FC000000000000000000000000099
:104090000000E0E060C071C07BC06AC06EC064C058
:1040A00060C0FBE000000000000000000000000015
:1040B000000073C0318039803D8035803780338087
:1040C0003180798000000000000000000000000046
:1040D00000001F00318060C060C060C060C060C070
:1040E00031801F0000000000000000000000000000
:1040F00000007F0031803180318031803F0030000E
:1041000030007E0000000000000000000000000001
:1041100000001F00318060C060C060C060C060C02F
:1041200031801F000CC01F80000000000000000054
:1041300000007F003180318031803E0033003180CB
:1041400031807CE000000000000000000000000062
:1041500000001F803180318038001F0003803180D3
:1041600031803F000000000000000000000000005F
:1041700000007F804C804C804C800C000C000C00B8
:104180000C003F00000000000000000000000000E4
:1041900000007BC0318031803180318031803180BE
:1041A00031801F000000000000000000000000003F
:1041B00000007BC0318031801B001B001B000A0007
:1041C0000E000E00000000000000000000000000D3
:1041D0000000FBE060C064C06EC06EC02A803B80FF
:1041E0003B80318000000000000000000000000063
:1041F00000007BC031801B000E000E000E001B0073
:1042000031807BC0000000000000000000000000C2
:10421000000079E030C019800F000600060006009B
:1042200006001F80000000000000000000000000E9
:1042300000003F8021802300060004000C0018804D
:1042400030803F80000000000000000000000000FF
:1042500007800600060006000600060006000600AD
:104260000600060006000780000000000000300085
:104270003000180018000C000C00060003000300BA
:104280000180018000C000C00000000000000000AC
:104290001E000600060006000600060006000600D6
:1042A0000600060006001E000000000000000400DA
:1042B0000A000A0011002080208000000000000099
:1042C00000000000000000000000000000000000EE
:1042D00000000000000000000000000000000000DE
:1042E000000000000000000000000000FFE00800E7
:1042F00004000200000000000000000000000000B8
:1043000000000000000000000000000000000000AD
:104310000000000000001F00018001801F8031802C
:1043200033801DC0000000000000000000000000FD
:104330007000300030003700398030C030C030C0ED
:10434000398077000000000000000000000000003D
:104350000000000000001E803180608060006080EE
:1043600031801F000000000000000000000000007D
:104370000380018001801D803380618061806180C5
:1043800033801DC00000000000000000000000009D
:104390000000000000001F00318060C07FC060008E
:1043A00030C01F800000000000000000000000007E
:1043B00007E00C000C003F800C000C000C000C000F
:1043C0000C003F8000000000000000000000000022
:1043D0000000000000001DC03380618061806180AA
:1043E00033801D80018001801F000000000000005C
:1043F00070003000300037003980318031803180EA
:1044000031807BC0000000000000000000000000C0
:104410000600060000001E0006000600060006005A
:1044200006003FC000000000000000000000000087
:104430000600060000003F00030003000300030025
:1044400003000300030003003E0000000000000022
:10445000700030003000378036003C003C003600F1
:10446000330077C0000000000000000000000000E2
:104470001E000600060006000600060006000600F4
:1044800006003FC000000000000000000000000027
:104490000000000000007F8036C036C036C036C045
:1044A00036C076E0000000000000000000000000C0
:1044B00000000000000077003980318031803180B9
:1044C00031807BC000000000000000000000000000
:1044D0000000000000001F00318060C060C060C0AC
:1044E00031801F00000000000000000000000000FC
:1044F0000000000000007700398030C030C030C0BC
:1045000039803700300030007C00000000000000DF
:104510000000000000001DC0338061806180618068
:1045200033801D800180018007C000000000000072
:104530000000000000007B801CC01800180018005C
:1045400018007F00000000000000000000000000D4
:104550000000000000001F8031803C001F0003802D
:1045600031803F000000000000000000000000005B
:104570001800180018007F00180018001800180014
:1045800018800F0000000000000000000000000084
:104590000000000000007380318031803180318064
:1045A00033801DC00000000000000000000000007B
:1045B0000000000000007BC0318031801B001B0028
:1045C0000E000E00000000000000000000000000CF
:1045D000000000000000F1E060C064C06EC03B80DD
:1045E0003B8031800000000000000000000000005F
:1045F0000000000000007BC01B000E000E000E003B
:104600001B007BC000000000000000000000000054
:1046100000000000000079E030C0198019800B0014
:104620000F00060006000C003E0000000000000025
:104630000000000000003F80218003000E001800F1
:1046400030803F80000000000000000000000000FB
:1046500006000C000C000C000C000C0018000C00F4
:104660000C000C000C000600000000000000000020
:10467000060006000600060006000600060006000A
:104680000600060006000600000000000000000012
:104690000C000600060006000600060003000600E7
:1046A0000600060006000C000000000000000000EC
:1046B000000000000000000018002480030000003B
:1046C00000000000000000000000000000000000EA
:1046D00000000000000000000000000000000000DA
:1046E00000000000000000000000000000000000CA
:1046F000000000000000000007000700070007009E
:104700000700070007000200020000000000070089
:104710000700000000000000000000000000000092
:1047200000001CE01CE01CE00840084008400000BD
:104730000000000000000000000000000000000079
:104740000000000000000CC00CC00CC00CC00CC06D
:104750003FF03FF00CC00CC03FF03FF00CC00CC06D
:104760000CC00CC00CC000000000000000000300E2
:10477000030007E00FE0186018001F000FC000E002
:10478000186018601FC01F800300030003000000B2
:1047900000000000000000001C0022002200220097
:1047A0001C6001E00F803C0031C00220022002208A
:1047B00001C0000000000000000000000000000038
:1047C0000000000003E00FE00C000C0006000F30BA
:1047D0001FF019E018C01FF007B000000000000033
:1047E0000000000000000000000003800380038040
:1047F00001000100010000000000000000000000B6
:1048000000000000000000000000000000000000A8
:1048100000C000C00180018001800300030003008C
:1048200003000300030001800180018000C000C07C
:1048300000000000000000000C000C000600060054
:10484000060003000300030003000300030006004A
:10485000060006000C000C00000000000000000034
:104860000300030003001B601FE0078007800FC0E8
:104870000CC000000000000000000000000000006C
:104880000000000000000000000000000300030022
:10489000030003003FF03FF00300030003000300A8
:1048A0000000000000000000000000000000000008
:1048B00000000000000000000000000000000000F8
:1048C000000000000380030003000600060004004F
:1048D00000000000000000000000000000000000D8
:1048E000000000003FE03FE000000000000000008A
:1048F00000000000000000000000000000000000B8
:1049000000000000000000000000000000000000A7
:10491000000000000380038003800000000000000E
:104920000000000000000060006000C000C000C087
:104930000180018003000300060006000C000C004B
:104940000C0018001800000000000000000000002B
:104950000F801FC018C03060306030603060306041
:104960003060306018C01FC00F80000000000000E1
:10497000000000000000000003001F001F000300F3
:1049800003000300030003000300030003001FE013
:104990001FE0000000000000000000000000000018
:1049A0000F801FC038E03060006000C0018003004D
:1049B00006000C0018003FE03FE00000000000008F
:1049C00000000000000000000F803FC030E00060E9
:1049D00000E007C007C000E00060006060E07FC04A
:1049E0003F80000000000000000000000000000008
:1049F00001C003C003C006C00CC00CC018C030C04A
:104A00003FE03FE000C003E003E0000000000000E2
:104A100000000000000000001FC01FC018001800A8
:104A20001F801FC018E000600060006030E03FC0E1
:104A30001F800000000000000000000000000000D7
:104A400003E00FE01E001800380037803FC038E058
:104A50003060306018E01FC00780000000000000D8
:104A600000000000000000003FE03FE03060006018
:104A700000C000C000C0018001800180030003006D
:104A80000300000000000000000000000000000023
:104A90000F801FC038E0306038E01FC01FC038E012
:104AA0003060306038E01FC00F8000000000000060
:104AB00000000000000000000F001FC038C0306080
:104AC000306038E01FE00F6000E000C003C03F80AE
:104AD0003E00000000000000000000000000000098
:104AE000000000000000000003800380038000003D
:104AF000000000000380038003800000000000002D
:104B000000000000000000000000000000000000A5
:104B100001C001C001C000000000000003800300CC
:104B20000600060004000000000000000000000075
:104B300000000000003000F003C007001C007800F7
:104B40001C00070003C000F000300000000000005F
:104B50000000000000000000000000000000000055
:104B60007FF07FF0000000007FF07FF00000000089
:104B70000000000000000000000000000000000035
:104B80000000000030003C000F00038000E00078CF
:104B900000E003800F003C00300000000000000037
:104BA000000000000000000000000F801FC018601F
:104BB0001860006001C003800300000000000700CF
:104BC00007000000000000000000000000000000DE
:104BD00003800C8008401040104011C01240124069
:104BE000124011C0100008000840078000000000BB
:104BF000000000000000000000001F801F800380F4
:104C000006C006C00CC00C601FE01FE03030787892
:104C100078780000000000000000000000000000A4
:104C200000003F803FC01860186018E01FC01FE000
:104C30001870183018303FF03FE00000000000000E
:104C40000000000000000000000007B00FF01C7022
:104C50003830300030003000300038301C700FE049
:104C600007C000000000000000000000000000007D
:104C700000007F807FC030E0307030303030303026
:104C80003030307030E07FC07F80000000000000D6
:104C9000000000000000000000003FF03FF018306E
:104CA000183019801F801F801980183018303FF08D
:104CB0003FF00000000000000000000000000000C5
:104CC00000003FF03FF01830183019801F801F801F
:104CD0001980180018003F003F000000000000008D
:104CE0000000000000000000000007B01FF0187076
:104CF00030303000300031F831F8303018301FF0EB
:104D000007C00000000000000000000000000000DC
:104D100000003CF03CF01860186018601FE01FE0D5
:104D20001860186018603CF03CF0000000000000C3
:104D3000000000000000000000001FE01FE0030072
:104D400003000300030003000300030003001FE04F
:104D50001FE0000000000000000000000000000054
:104D6000000003F803F8006000600060006030603D
:104D70003060306030E03FC00F8000000000000075
:104D8000000000000000000000003EF83EF818E0BF
:104D900019801B001F001D8018C018C018603E78C5
:104DA0003E3800000000000000000000000000008D
:104DB00000003F003F000C000C000C000C000C0039
:104DC0000C300C300C303FF03FF0000000000000D1
:104DD000000000000000000000007878787838704B
:104DE0003CF034B037B037B03330333030307CF84B
:104DF0007CF800000000000000000000000000003F
:104E0000000039F03DF01C601E601E601B601B60DE
:104E100019E019E018E03EE03E60000000000000EC
:104E20000000000000000000000007800FC01CE030
:104E30003870303030303030303038701CE00FC0D7
:104E400007800000000000000000000000000000DB
:104E500000003FC03FE018701830183018701FE095
:104E60001FC0180018003F003F00000000000000B5
:104E70000000000000000000000007800FC01CE0E0
:104E80003870303030303030303038701CE00FC087
:104E9000078007B00FF00CE00000000000000000E9
:104EA00000003FC03FE01870183018701FE01FC0AE
:104EB00018E0186018703E383E180000000000002E
:104EC000000000000000000000000FB01FF038706C
:104ED000303038001F8007E00070303038703FE01D
:104EE00037C00000000000000000000000000000CB
:104EF00000003FF03FF03330333033300300030025
:104F00000300030003000FC00FC0000000000000FA
:104F1000000000000000000000003CF03CF01860C1
:104F20001860186018601860186018601CE00FC0E6
:104F300007800000000000000000000000000000EA
:104F4000000078F078F03060306018C018C00D8034
:104F50000D800D8007000700070000000000000022
:104F6000000000000000000000007C7C7C7C301809
:104F700033983398339836D816D01C701C701C7038
:104F800018300000000000000000000000000000D9
:104F9000000078F078F0306018C00D80070007003E
:104FA0000D8018C0306078F078F00000000000003C
:104FB000000000000000000000003CF03CF0186021
:104FC0000CC00780078003000300030003000FC02C
:104FD0000FC0000000000000000000000000000002
:104FE00000001FE01FE0186018C0018003000300EC
:104FF00006000C6018601FE01FE0000000000000C9
:10500000000000000000000003C003C00300030014
:105010000300030003000300030003000300030078
:105020000300030003C003C00000000000001800DC
:1050300018000C000C000C00060006000300030022
:105040000180018000C000C000C00060006000005E
:1050500000000000000000000F000F00030003002C
:105060000300030003000300030003000300030028
:10507000030003000F000F0000000000000000000C
:10508000020007000D8018C03060202000000000E2
:105090000000000000000000000000000000000010
:1050A0000000000000000000000000000000000000
:1050B00000000000000000000000000000000000F0
:1050C00000000000000000000000FFFCFFFC0000EA
:1050D0000400030000800000000000000000000049
:1050E00000000000000000000000000000000000C0
:1050F00000000000000000000000000000000000B0
:105100000FC01FE000600FE01FE0386030E03FF0AC
:105110001F70000000000000000000000000000000
:10512000700070003000300037803FE03860303071
:105130003030303038607FE07780000000000000C1
:10514000000000000000000000000000000000005F
:1051500007B01FF0183030303000300038301FF00A
:105160000FC0000000000000000000000000000070
:10517000007000700030003007B01FF01870303041
:105180003030303038701FF807B8000000000000E1
:10519000000000000000000000000000000000000F
:1051A00007801FE018603FF03FF0300018301FF01C
:1051B00007C0000000000000000000000000000028
:1051C00003F007F0060006001FE01FE006000600DF
:1051D0000600060006001FE01FE0000000000000BF
:1051E00000000000000000000000000000000000BF
:1051F00007B81FF8187030303030303018701FF09A
:1052000007B0003000700FE00FC000000000000089
:1052100038003800180018001BC01FE01C60186020
:105220001860186018603CF03CF0000000000000BE
:105230000000000000000000030003000000000068
:105240001F001F00030003000300030003001FE012
:105250001FE000000000000000000000000000004F
:1052600003000300000000001FC01FC000C000C0FA
:1052700000C000C000C000C000C000C001C03F802E
:105280003F0000000000000038003800180018003F
:105290001BE01BE01B001E001E001B00198039F0E4
:1052A00039F00000000000000000000000000000D5
:1052B0001F001F000300030003000300030003009E
:1052C0000300030003001FE01FE0000000000000D7
:1052D00000000000000000000000000000000000CE
:1052E0007EE07FF0333033303330333033307BB8CF
:1052F0007BB800000000000000000000000000007B
:1053000000000000000000003BC03FE01C6018608F
:105310001860186018603CF03CF0000000000000CD
:10532000000000000000000000000000000000007D
:1053300007801FE0186030303030303018601FE0D8
:1053400007800000000000000000000000000000D6
:10535000000000000000000077807FE038603030FF
:105360003030303038603FE03780300030007C0033
:105370007C000000000000000000000000000000B1
:1053800007B81FF8187030303030303018701FF008
:1053900007B00030003000F800F800000000000006
:1053A00000000000000000003CE03DF00F300E0067
:1053B0000C000C000C003FC03FC0000000000000CB
:1053C00000000000000000000000000000000000DD
:1053D00007E01FE018601E000FC001E018601FE02A
:1053E0001F8000000000000000000000000000001E
:1053F00000000C000C000C003FE03FE00C000C0033
:105400000C000C000C300FF007C000000000000082
:10541000000000000000000000000000000000008C
:1054200038E038E0186018601860186018E01FF065
:105430000F700000000000000000000000000000ED
:10544000000000000000000078F078F0306018C024
:1054500018C00D800D80070007000000000000004C
:10546000000000000000000000000000000000003C
:1054700078F078F03260326037E01DC01DC018C08F
:1054800018C0000000000000000000000000000044
:1054900000000000000000003CF03CF00CC0078061
:1054A000030007800CC03CF03CF00000000000004E
:1054B00000000000000000000000000000000000EC
:1054C00078F078F0306018C018C00D800F800700A9
:1054D000060006000C007F007F00000000000000B6
:1054E00000000000000000001FE01FE018C0018065
:1054F000030006000C601FE01FE000000000000039
:10550000000000000000000001C003C00300030011
:1055100003000300030007000E0007000300030060
:105520000300030003C001C00000000000000000F1
:105530000300030003000300030003000300030053
:105540000300030003000300030003000300030043
:1055500000000000000000001C001E000600060005
:10556000060006000600070003800700060006008C
:10557000060006001E001C000000000000000000E5
:10558000000000000000000000000E003F3033F07B
:1055900001E000000000000000000000000000002A
:1055A000000000000000C4E3000000000000000054
:1055B00000000000000000000000000000000000EB
:1055C0000000000001C1C00001E3E00003E3C000EF
:1055D00003C7800003C7FFFF078FFFFF078F000F80
:1055E0000F1E001E0F3C1E1E1F3C1E3E1F181E3CA1
:1055F0003F001E1C7F001E007F079E70FF079EF06D
:10560000EF0F9E786F0F1E780F0F1E3C0F1E1E3C73
:105610000F1E1E1E0F3C1E1E0F3C1E1F0F7C1E0F5A
:105620000F781E0E0F001E000F001E000F003C0022
:105630000F07FC000F07F80000000000000000004A
:10564000000000000000000000000000BAC30000DD
:10565000000000000000000000000000000000004A
:105660000000000000000F0000000F0000000F0706
:10567000FFFE0F07FFFE0F00003E1E0000FCFFF8BC
:1056800001F0FFF803E01E7807C01E780F803C7819
:105690000F003C780F003C780F003C780F003C7FF7
:1056A000FFFF78FFFFFF78F00F0078F00F003DE07C
:1056B0000F001FE00F000FE00F0007C00F0007E012
:1056C0000F0007F00F000FF80F001E7C0F003C3892
:1056D0000F0078000F00F003FF006001FE000000E3
:1056E00000000000000000000000000000000000BA
:1056F0000000CEA20000000000000000000000003A
:10570000000000000000000000000000030701E0AE
:10571000078701E0070701C00FF779C01EF77BC0BC
:105720001EF77B803CF77BFF78F77BFFF8F77F9EC7
:10573000F7FFFF9E67FFFF9E07007F9C0F000F9CF7
:105740001E001F9C1E7FFFBC3E7FF3FC3E0003FC3F
:105750007E0001F8FE0001F8FE7FE1F8DE7FE1F84F
:105760001E78E0F01E78EEF01E78FFF01E78FDF84F
:105770001E79FBFC1EF1F7BC1EF0EF9E1FE00F0F21
:105780001EC01E0F1E000C070000000000000000DD
:105790000000000000000000C8ED00000000000054
:1057A000000000000000000000000000000003C036
:1057B000780007807800078078000780F0000F00ED
:1057C000F000FFFFFFFFFFFFFFFF1E03C01F1E03D0
:1057D000C01E1FE78F3E3DE78F3C3DEF0F7C3DE74E
:1057E0000F7879E00F0079E00E007FFE0E007FFE5B
:1057F0001F0001E01F0001E01F0001E01F8001E029
:105800001F8001E03F8001FF3FC00FFF7BC0FFF022
:1058100079E0F9E0F1F001E1F0F001E3E0F801E70F
:10582000C07C01FF803F01FF001F01EC000E000063
:105830000000000000000000000000000000D1C5D2
:105840000000000000000000000000000000000058
:105850000000000000000000000077000000FF00D2
:105860007FFCF7807FFDE3C001C1E3C001C3C180BD
:105870003DC7FFFF39C7FFFF39CF838079DF8380C2
:1058800079FF838079DF838071C383807FFFFFFE90
:105890007FFFFFFE03C3838007C3838007C383802A
:1058A0000FC383800FC383801FC3FFFE1DC3FFFE92
:1058B0003DC3838079C38380F1C38380F1C3838038
:1058C00061C3838001C3FFFF03C3FFFF1FC38000C9
:1058D0001F838000000000000000000000000000A6
:1058E00000000000BADA0000000000000000000024
:1058F00000000000000000000000000000000000A8
:105900000000000000001FFFFFFC1FFFFFFC1E0344
:10591000C03C1EC3C73C1FE3C7BC1EF3CF3C1EFBED
:10592000DF3C1E7BDE3C1E33DC3C1E03C03C1FFF05
:10593000FFFC1FFFFFFC1E03C03C0003C000000370
:10594000C0003FFFFFFC3FFFFFFC0003C00000035F
:10595000C0000003C000FFFFFFFFFFFFFFFF0000CC
:1059600000001C3870703E78F8F83C7C787C7C3CF9
:105970003C3EF83E3C1FF01C180E000000000000EA
:1059800000000000000000000000B4CB0000000098
:105990000000000000000000000000000000000007
:1059A000000000000000000000783C0000783C008F
:1059B00000783C0000783C0000783C0000783C0C0B
:1059C0003C783C1E3C783C3F3C783CF83C7FFDF00A
:1059D0003C7FFFE03C783F803C783E003C783C00D8
:1059E0003C783C003C783C003C783C003C783C00F7
:1059F0003C783C003C783C0E3C783C0F3C783C0FBB
:105A00003C79FC0F3C7FFC0F3FFF3C0F3FF03E1EFC
:105A1000FF001FFEF0000FFC00000000000000006F
:105A20000000000000000000000000000000000076
:105A3000D7D60000000000000000000000000000B9
:105A40000000000000000003800000078000000349
:105A5000C0000003E0000001E0007FFFFFFE7FFFC9
:105A6000FFFE7800001E7800001E7800001E7800FF
:105A7000001E7BFFFFDE03FFFFC000000FC0000021
:105A80003F0000007E000001F8000001E00000017E
:105A9000E000FFFFFFFFFFFFFFFF0001E00000014C
:105AA000E0000001E0000001E0000001E000000172
:105AB000E0000003E0000003C00000FFC00000FFA2
:105AC0008000000000000000000000000000000056
:105AD000000000000000CCE5000000000000000015
